{
  "contractName": "DocBlock",
  "abi": [
    {
      "inputs": [],
      "payable": false,
      "stateMutability": "nonpayable",
      "type": "constructor"
    },
    {
      "anonymous": false,
      "inputs": [
        {
          "indexed": false,
          "internalType": "address",
          "name": "user",
          "type": "address"
        },
        {
          "indexed": false,
          "internalType": "string",
          "name": "name",
          "type": "string"
        },
        {
          "indexed": false,
          "internalType": "string",
          "name": "document",
          "type": "string"
        },
        {
          "indexed": false,
          "internalType": "uint256",
          "name": "timestamp",
          "type": "uint256"
        }
      ],
      "name": "signAdded",
      "type": "event"
    },
    {
      "constant": true,
      "inputs": [
        {
          "internalType": "string",
          "name": "",
          "type": "string"
        },
        {
          "internalType": "uint256",
          "name": "",
          "type": "uint256"
        }
      ],
      "name": "signs",
      "outputs": [
        {
          "internalType": "string",
          "name": "document",
          "type": "string"
        }
      ],
      "payable": false,
      "stateMutability": "view",
      "type": "function"
    },
    {
      "constant": false,
      "inputs": [
        {
          "internalType": "string",
          "name": "name",
          "type": "string"
        },
        {
          "internalType": "string",
          "name": "document",
          "type": "string"
        }
      ],
      "name": "signDocument",
      "outputs": [],
      "payable": false,
      "stateMutability": "nonpayable",
      "type": "function"
    },
    {
      "constant": true,
      "inputs": [
        {
          "internalType": "string",
          "name": "name",
          "type": "string"
        }
      ],
      "name": "getSignedDocuments",
      "outputs": [
        {
          "components": [
            {
              "internalType": "string",
              "name": "document",
              "type": "string"
            }
          ],
          "internalType": "struct DocBlock.Sign[]",
          "name": "",
          "type": "tuple[]"
        }
      ],
      "payable": false,
      "stateMutability": "view",
      "type": "function"
    }
  ],
  "bytecode": "0x608060405234801561001057600080fd5b50336000806101000a81548173ffffffffffffffffffffffffffffffffffffffff021916908373ffffffffffffffffffffffffffffffffffffffff160217905550610bef806100606000396000f3fe608060405234801561001057600080fd5b50600436106100415760003560e01c8063862adf8c146100465780638d58bf0214610076578063c8a09b3f14610092575b600080fd5b610060600480360361005b91908101906105c5565b6100c2565b60405161006d919061095d565b60405180910390f35b610090600480360361008b9190810190610606565b610221565b005b6100ac60048036036100a79190810190610672565b61036e565b6040516100b9919061097f565b60405180910390f35b60606000825111610108576040517f08c379a00000000000000000000000000000000000000000000000000000000081526004016100ff906109c1565b60405180910390fd5b60018260405161011891906108f3565b9081526020016040518091039020805480602002602001604051908101604052809291908181526020016000905b8282101561021657838290600052602060002001604051806020016040529081600082018054600181600116156101000203166002900480601f0160208091040260200160405190810160405280929190818152602001828054600181600116156101000203166002900480156101fe5780601f106101d3576101008083540402835291602001916101fe565b820191906000526020600020905b8154815290600101906020018083116101e157829003601f168201915b50505050508152505081526020019060010190610146565b505050509050919050565b6000825111610265576040517f08c379a000000000000000000000000000000000000000000000000000000000815260040161025c906109c1565b60405180910390fd5b60008151116102a9576040517f08c379a00000000000000000000000000000000000000000000000000000000081526004016102a0906109a1565b60405180910390fd5b6102b1610450565b60405180602001604052808381525090506001836040516102d291906108f3565b9081526020016040518091039020819080600181540180825580915050906001820390600052602060002001600090919290919091506000820151816000019080519060200190610324929190610463565b505050507fe3c8597020ffbb5a44727cfe672426cbe9e9481970f4530ba2ba71bbee5943ad3384836000015142604051610361949392919061090a565b60405180910390a1505050565b600182805160208101820180518482526020830160208501208183528095505050505050818154811061039d57fe5b9060005260206000200160009150915050806000018054600181600116156101000203166002900480601f0160208091040260200160405190810160405280929190818152602001828054600181600116156101000203166002900480156104465780601f1061041b57610100808354040283529160200191610446565b820191906000526020600020905b81548152906001019060200180831161042957829003601f168201915b5050505050905081565b6040518060200160405280606081525090565b828054600181600116156101000203166002900490600052602060002090601f016020900481019282601f106104a457805160ff19168380011785556104d2565b828001600101855582156104d2579182015b828111156104d15782518255916020019190600101906104b6565b5b5090506104df91906104e3565b5090565b61050591905b808211156105015760008160009055506001016104e9565b5090565b90565b600082601f83011261051957600080fd5b813561052c61052782610a0e565b6109e1565b9150808252602083016020830185838301111561054857600080fd5b610553838284610b42565b50505092915050565b600082601f83011261056d57600080fd5b813561058061057b82610a3a565b6109e1565b9150808252602083016020830185838301111561059c57600080fd5b6105a7838284610b42565b50505092915050565b6000813590506105bf81610b95565b92915050565b6000602082840312156105d757600080fd5b600082013567ffffffffffffffff8111156105f157600080fd5b6105fd8482850161055c565b91505092915050565b6000806040838503121561061957600080fd5b600083013567ffffffffffffffff81111561063357600080fd5b61063f8582860161055c565b925050602083013567ffffffffffffffff81111561065c57600080fd5b6106688582860161055c565b9150509250929050565b6000806040838503121561068557600080fd5b600083013567ffffffffffffffff81111561069f57600080fd5b6106ab85828601610508565b92505060206106bc858286016105b0565b9150509250929050565b60006106d283836108ba565b905092915050565b6106e381610b0c565b82525050565b60006106f482610a76565b6106fe8185610aa4565b93508360208202850161071085610a66565b8060005b8581101561074c578484038952815161072d85826106c6565b945061073883610a97565b925060208a01995050600181019050610714565b50829750879550505050505092915050565b600061076982610a8c565b6107738185610ac6565b9350610783818560208601610b51565b61078c81610b84565b840191505092915050565b60006107a282610a8c565b6107ac8185610ad7565b93506107bc818560208601610b51565b80840191505092915050565b60006107d382610a81565b6107dd8185610ab5565b93506107ed818560208601610b51565b6107f681610b84565b840191505092915050565b600061080c82610a81565b6108168185610ac6565b9350610826818560208601610b51565b61082f81610b84565b840191505092915050565b6000610847601283610ac6565b91507f646f63756d656e7420697320656d7074792100000000000000000000000000006000830152602082019050919050565b6000610887600e83610ac6565b91507f6e616d6520697320656d707479210000000000000000000000000000000000006000830152602082019050919050565b600060208301600083015184820360008601526108d782826107c8565b9150508091505092915050565b6108ed81610b02565b82525050565b60006108ff8284610797565b915081905092915050565b600060808201905061091f60008301876106da565b8181036020830152610931818661075e565b905081810360408301526109458185610801565b905061095460608301846108e4565b95945050505050565b6000602082019050818103600083015261097781846106e9565b905092915050565b600060208201905081810360008301526109998184610801565b905092915050565b600060208201905081810360008301526109ba8161083a565b9050919050565b600060208201905081810360008301526109da8161087a565b9050919050565b6000604051905081810181811067ffffffffffffffff82111715610a0457600080fd5b8060405250919050565b600067ffffffffffffffff821115610a2557600080fd5b601f19601f8301169050602081019050919050565b600067ffffffffffffffff821115610a5157600080fd5b601f19601f8301169050602081019050919050565b6000819050602082019050919050565b600081519050919050565b600081519050919050565b600081519050919050565b6000602082019050919050565b600082825260208201905092915050565b600082825260208201905092915050565b600082825260208201905092915050565b600081905092915050565b600073ffffffffffffffffffffffffffffffffffffffff82169050919050565b6000819050919050565b6000610b1782610b1e565b9050919050565b6000610b2982610b30565b9050919050565b6000610b3b82610ae2565b9050919050565b82818337600083830152505050565b60005b83811015610b6f578082015181840152602081019050610b54565b83811115610b7e576000848401525b50505050565b6000601f19601f8301169050919050565b610b9e81610b02565b8114610ba957600080fd5b5056fea365627a7a72315820745d13ec3a02c4fe638cc6c46f8ec832263e647849cb9c8121a691cb2d21ffdf6c6578706572696d656e74616cf564736f6c63430005100040",
  "source": "// SPDX-License-Identifier: MIT\npragma solidity >=0.4.21 <0.7.0;\npragma experimental ABIEncoderV2;\n\ncontract DocBlock {\n  address owner;\n  mapping (string => Sign[]) public signs;\n\n  struct Sign {\n    string document;\n  }\n\n  constructor() public {\n    owner = msg.sender;\n  }\n\n  event signAdded(\n    address user,\n    string name,\n    string document,\n    uint256 timestamp\n  );\n\n  function signDocument(string memory name, string memory document) public {\n    require(bytes(name).length > 0, \"name is empty!\");\n    require(bytes(document).length > 0, \"document is empty!\");\n\n    Sign memory newSign = Sign(document);\n    signs[name].push(newSign);\n    emit signAdded(msg.sender, name, newSign.document, block.timestamp);\n  }\n\n  function getSignedDocuments(string memory name) public view returns (Sign [] memory) {\n    require(bytes(name).length > 0, \"name is empty!\");\n    return signs[name];\n  }\n}\n",
  "sourcePath": "/Users/arnaullobet/Desktop/PAE/DOCBLOCK/blockchain/contracts/DocBlock.sol",
  "compiler": {
    "name": "solc",
    "version": "0.5.16+commit.9c3226ce.Emscripten.clang"
  },
  "schemaVersion": "3.4.3",
  "updatedAt": "2022-05-02T16:54:10.381Z",
  "networkType": "ethereum",
  "devdoc": {
    "methods": {}
  },
  "userdoc": {
    "methods": {}
  }
}