{
  "contractName": "DocBlock",
  "abi": [
    {
      "inputs": [],
      "stateMutability": "nonpayable",
      "type": "constructor"
    },
    {
      "anonymous": false,
      "inputs": [
        {
          "indexed": false,
          "internalType": "address",
          "name": "user",
          "type": "address"
        },
        {
          "indexed": false,
          "internalType": "string",
          "name": "name",
          "type": "string"
        },
        {
          "indexed": false,
          "internalType": "string",
          "name": "document",
          "type": "string"
        },
        {
          "indexed": false,
          "internalType": "uint256",
          "name": "timestamp",
          "type": "uint256"
        }
      ],
      "name": "signAdded",
      "type": "event"
    },
    {
      "inputs": [
        {
          "internalType": "string",
          "name": "",
          "type": "string"
        },
        {
          "internalType": "uint256",
          "name": "",
          "type": "uint256"
        }
      ],
      "name": "signs",
      "outputs": [
        {
          "internalType": "string",
          "name": "document",
          "type": "string"
        }
      ],
      "stateMutability": "view",
      "type": "function",
      "constant": true
    },
    {
      "inputs": [
        {
          "internalType": "string",
          "name": "name",
          "type": "string"
        },
        {
          "internalType": "string",
          "name": "document",
          "type": "string"
        }
      ],
      "name": "signDocument",
      "outputs": [],
      "stateMutability": "nonpayable",
      "type": "function"
    },
    {
      "inputs": [
        {
          "internalType": "string",
          "name": "name",
          "type": "string"
        }
      ],
      "name": "getSignedDocuments",
      "outputs": [
        {
          "components": [
            {
              "internalType": "string",
              "name": "document",
              "type": "string"
            }
          ],
          "internalType": "struct DocBlock.Sign[]",
          "name": "",
          "type": "tuple[]"
        }
      ],
      "stateMutability": "view",
      "type": "function",
      "constant": true
    }
  ],
  "bytecode": "0x608060405234801561001057600080fd5b50336000806101000a81548173ffffffffffffffffffffffffffffffffffffffff021916908373ffffffffffffffffffffffffffffffffffffffff160217905550610b13806100606000396000f3fe608060405234801561001057600080fd5b50600436106100415760003560e01c8063862adf8c146100465780638d58bf0214610076578063c8a09b3f14610092575b600080fd5b610060600480360381019061005b9190610566565b6100c2565b60405161006d91906108c5565b60405180910390f35b610090600480360381019061008b91906105a7565b610221565b005b6100ac60048036038101906100a79190610613565b61036b565b6040516100b991906108e7565b60405180910390f35b60606000825111610108576040517f08c379a00000000000000000000000000000000000000000000000000000000081526004016100ff90610929565b60405180910390fd5b600182604051610118919061085b565b9081526020016040518091039020805480602002602001604051908101604052809291908181526020016000905b8282101561021657838290600052602060002001604051806020016040529081600082018054600181600116156101000203166002900480601f0160208091040260200160405190810160405280929190818152602001828054600181600116156101000203166002900480156101fe5780601f106101d3576101008083540402835291602001916101fe565b820191906000526020600020905b8154815290600101906020018083116101e157829003601f168201915b50505050508152505081526020019060010190610146565b505050509050919050565b6000825111610265576040517f08c379a000000000000000000000000000000000000000000000000000000000815260040161025c90610929565b60405180910390fd5b60008151116102a9576040517f08c379a00000000000000000000000000000000000000000000000000000000081526004016102a090610909565b60405180910390fd5b6102b161044d565b60405180602001604052808381525090506001836040516102d2919061085b565b908152602001604051809103902081908060018154018082558091505060019003906000526020600020016000909190919091506000820151816000019080519060200190610322929190610460565b5050507fe3c8597020ffbb5a44727cfe672426cbe9e9481970f4530ba2ba71bbee5943ad338483600001514260405161035e9493929190610872565b60405180910390a1505050565b600182805160208101820180518482526020830160208501208183528095505050505050818154811061039a57fe5b9060005260206000200160009150915050806000018054600181600116156101000203166002900480601f0160208091040260200160405190810160405280929190818152602001828054600181600116156101000203166002900480156104435780601f1061041857610100808354040283529160200191610443565b820191906000526020600020905b81548152906001019060200180831161042657829003601f168201915b5050505050905081565b6040518060200160405280606081525090565b828054600181600116156101000203166002900490600052602060002090601f016020900481019282601f106104a157805160ff19168380011785556104cf565b828001600101855582156104cf579182015b828111156104ce5782518255916020019190600101906104b3565b5b5090506104dc91906104e0565b5090565b5b808211156104f95760008160009055506001016104e1565b5090565b600082601f83011261050e57600080fd5b813561052161051c82610976565b610949565b9150808252602083016020830185838301111561053d57600080fd5b610548838284610a73565b50505092915050565b60008135905061056081610ac6565b92915050565b60006020828403121561057857600080fd5b600082013567ffffffffffffffff81111561059257600080fd5b61059e848285016104fd565b91505092915050565b600080604083850312156105ba57600080fd5b600083013567ffffffffffffffff8111156105d457600080fd5b6105e0858286016104fd565b925050602083013567ffffffffffffffff8111156105fd57600080fd5b610609858286016104fd565b9150509250929050565b6000806040838503121561062657600080fd5b600083013567ffffffffffffffff81111561064057600080fd5b61064c858286016104fd565b925050602061065d85828601610551565b9150509250929050565b60006106738383610822565b905092915050565b61068481610a3d565b82525050565b6000610695826109b2565b61069f81856109d5565b9350836020820285016106b1856109a2565b8060005b858110156106ed57848403895281516106ce8582610667565b94506106d9836109c8565b925060208a019950506001810190506106b5565b50829750879550505050505092915050565b600061070a826109bd565b61071481856109e6565b9350610724818560208601610a82565b61072d81610ab5565b840191505092915050565b6000610743826109bd565b61074d81856109f7565b935061075d818560208601610a82565b61076681610ab5565b840191505092915050565b600061077c826109bd565b6107868185610a08565b9350610796818560208601610a82565b80840191505092915050565b60006107af6012836109f7565b91507f646f63756d656e7420697320656d7074792100000000000000000000000000006000830152602082019050919050565b60006107ef600e836109f7565b91507f6e616d6520697320656d707479210000000000000000000000000000000000006000830152602082019050919050565b6000602083016000830151848203600086015261083f82826106ff565b9150508091505092915050565b61085581610a33565b82525050565b60006108678284610771565b915081905092915050565b6000608082019050610887600083018761067b565b81810360208301526108998186610738565b905081810360408301526108ad8185610738565b90506108bc606083018461084c565b95945050505050565b600060208201905081810360008301526108df818461068a565b905092915050565b600060208201905081810360008301526109018184610738565b905092915050565b60006020820190508181036000830152610922816107a2565b9050919050565b60006020820190508181036000830152610942816107e2565b9050919050565b6000604051905081810181811067ffffffffffffffff8211171561096c57600080fd5b8060405250919050565b600067ffffffffffffffff82111561098d57600080fd5b601f19601f8301169050602081019050919050565b6000819050602082019050919050565b600081519050919050565b600081519050919050565b6000602082019050919050565b600082825260208201905092915050565b600082825260208201905092915050565b600082825260208201905092915050565b600081905092915050565b600073ffffffffffffffffffffffffffffffffffffffff82169050919050565b6000819050919050565b6000610a4882610a4f565b9050919050565b6000610a5a82610a61565b9050919050565b6000610a6c82610a13565b9050919050565b82818337600083830152505050565b60005b83811015610aa0578082015181840152602081019050610a85565b83811115610aaf576000848401525b50505050565b6000601f19601f8301169050919050565b610acf81610a33565b8114610ada57600080fd5b5056fea2646970667358221220f5b26f972e948351d9c03eb59a710ce57a40843e7a1bb7a3fd17d38d3bd948f164736f6c634300060c0033",
  "immutableReferences": {},
  "source": "// SPDX-License-Identifier: MIT\npragma solidity >=0.6.0 <0.7.0;\npragma experimental ABIEncoderV2;\n\ncontract DocBlock {\n  address owner;\n  mapping (string => Sign[]) public signs;\n\n  struct Sign {\n    string document;\n  }\n\n  constructor() public {\n    owner = msg.sender;\n  }\n\n  event signAdded(\n    address user,\n    string name,\n    string document,\n    uint256 timestamp\n  );\n\n  function signDocument(string memory name, string memory document) public {\n    require(bytes(name).length > 0, \"name is empty!\");\n    require(bytes(document).length > 0, \"document is empty!\");\n\n    Sign memory newSign = Sign(document);\n    signs[name].push(newSign);\n    emit signAdded(msg.sender, name, newSign.document, block.timestamp);\n  }\n\n  function getSignedDocuments(string memory name) public view returns (Sign [] memory) {\n    require(bytes(name).length > 0, \"name is empty!\");\n    return signs[name];\n  }\n}\n",
  "sourcePath": "/Users/arnaullobet/Desktop/PAE/DOCBLOCK/react-dapp/contracts/DocBlock.sol",
  "compiler": {
    "name": "solc",
    "version": "0.6.12+commit.27d51765.Emscripten.clang"
  },
  "schemaVersion": "3.4.7",
  "updatedAt": "2022-06-07T19:24:01.140Z",
  "networkType": "ethereum",
  "devdoc": {
    "kind": "dev",
    "methods": {},
    "version": 1
  },
  "userdoc": {
    "kind": "user",
    "methods": {},
    "version": 1
  }
}